:020000040800F2
:1000000080110020B1200008B10D0008B30D0008D8
:10001000B70D0008BB0D0008BF0D00080000000070
:10002000000000000000000000000000C30D0008F8
:10003000C50D000800000000C70D0008C90D00082C
:10004000CB200008CB200008CB200008CB200008E4
:10005000CB200008CB200008CB200008CB200008D4
:10006000CB200008CB200008CB200008CB200008C4
:10007000CB200008CB200008CB200008CB200008B4
:10008000CB200008CB200008CB200008CB200008A4
:10009000CB200008CB200008CB200008CB20000894
:1000A000CB200008CB200008CB200008CB20000884
:1000B000CB200008CB200008CB200008CB20000874
:1000C000CB200008CB200008CB200008CB20000864
:1000D000CB20000825200008CB200008CB200008FA
:1000E000CB200008CB200008CB200008CB20000844
:1000F000CB200008CB200008CB200008CB20000834
:10010000CB200008CB200008CB200008CB20000823
:10011000CB200008CB200008CB200008CB20000813
:10012000CB200008CB200008CB200008CB20000803
:1001300000F002F800F05AF80AA090E8000C82449F
:100140008344AAF10107DA4501D100F04FF8AFF27C
:10015000090EBAE80F0013F0010F18BFFB1A43F0A5
:1001600001031847484C0000684C00000A444FF057
:10017000000C10F8013B13F0070408BF10F8014B06
:100180001D1108BF10F8015B641E05D010F8016B4B
:10019000641E01F8016BF9D113F0080F1EBF10F8AF
:1001A000014BAD1C0C1B09D16D1E58BF01F801CBD2
:1001B000FAD505E014F8016B01F8016B6D1EF9D555
:1001C0009142D6D37047000000230024002500266A
:1001D000103A28BF78C1FBD8520728BF30C148BFAA
:1001E0000B6070471FB51FBD10B510BD02F077FD45
:1001F0001146FFF7F7FF00F075FB02F095FD03B421
:10020000FFF7F2FF03BC01F0B3FE00001CB50024B1
:1002100000BF52E00120FA4940238022CDE90010BE
:100220000021084601F03BFA00F036FF4FF49670CB
:1002300001F071FE01223A211E2000F065FF00F05E
:100240002BFF4FF4967001F066FE01223A21372011
:1002500000F05AFF00F020FF4FF4967001F05BFEB3
:1002600001223A214B2000F04FFF00F015FF4FF420
:10027000967001F050FE01223A215F2000F044FF09
:1002800000F00AFF4FF4967001F045FE00223A217B
:100290001E2000F039FF00223A21372000F034FF01
:1002A00000223A214B2000F02FFF00223A215F204C
:1002B00000F02AFF00F0F0FE641C032CAADB00F023
:1002C0000EFF1CBD1CB50120CE4910238022CDE9B4
:1002D00000100021084601F0E2F901201023052258
:1002E0001E210090192001F00CF901201023062294
:1002F0001E2100902D2001F004F901201023072277
:100300001E210090412001F0FCF80120102308225A
:100310001E210090552001F0F4F800F0BDFE1CBD38
:1003200008B501201023002211460090142001F08E
:10033000E8F801201023024600210090282001F057
:10034000E0F8012010230222002100903C2001F05F
:10035000D8F801201023032200210090502001F042
:10036000D0F801201023042200210090642001F025
:10037000C8F801203223152219460090052000F00C
:10038000FCFE01203223292219460090192000F09A
:10039000F4FE012032233D22194600902D2000F06A
:1003A000ECFE01203223512219460090412000F03A
:1003B000E4FE01203223652219460090552000F00A
:1003C000DCFE01203223792219460090692000F0DA
:1003D000D4FE00F061FE08BD08B5012010230922FB
:1003E0001E210090142001F08CF8012010230A2215
:1003F0001E210090282001F084F8012010230B22F8
:100400001E2100903C2001F07CF8012010230C22DA
:100410001E210090502001F074F8012010230D22BD
:100420001E210090642001F06CF800F035FE08BD3C
:1004300008B5012010230E221E210090142001F087
:1004400060F8012010230F221E210090282001F0C7
:1004500058F8012010231A461E2100903C2001F07C
:1004600050F80120102311221E210090502001F08D
:1004700048F80120102312221E210090642001F070
:1004800040F800F009FE08BD7CB5044600250120B7
:100490005C4910238022CDE900100021084601F0BC
:1004A000FEF801201023182214210090084601F0C4
:1004B00028F801201023192214210090282001F08F
:1004C00020F80120102350A2142100903C2000F0BD
:1004D000A2FF20680A280BD201201021CDE90010CC
:1004E000034614214620226800F0C5FF082519E0C4
:1004F000206864280BD201201021CDE900100223CE
:1005000014214620226800F0B6FF10250AE00120E1
:100510001021CDE90010032314214620226800F0A9
:10052000AAFF1825012005F146010090C8B210234A
:1005300036A2142100F06FFF083560680A280CD23B
:1005400001201021CDE9001005F14601C8B20123B8
:100550001421626800F08FFF1BE0606864280CD2F1
:1005600001201021CDE9001005F14601C8B2022397
:100570001421626800F07FFF0BE001201021CDE91B
:10058000001005F14601C8B203231421626800F08F
:1005900072FF012010231A2228210090142000F05D
:1005A000B0FF012010231B2228210090084600F0F4
:1005B000A8FF0120102314A2282100903C2000F065
:1005C0002AFFA0680A280BD201201021CDE90010D3
:1005D000034628214620A26800F04DFF082522E0AE
:1005E000A068642814D201201021CDE90010022354
:1005F00028214620A26800F03EFF102513E00000ED
:1006000000010020000000203A0000002E00000041
:1006100001201021CDE90010032328214620A268E3
:1006200000F029FF1825012005F146010090C8B20D
:100630001023AFF22802282100F0EDFE0835E06813
:100640000A280CD201201021CDE9001005F1460145
:10065000C8B201232821E26800F00DFF1BE0E0682A
:1006600064280CD201201021CDE9001005F14601CB
:10067000C8B202232821E26800F0FDFE0BE0012051
:100680001021CDE9001005F14601C8B2032328214D
:10069000E26800F0F0FE00F0FFFC7CBD08B5012030
:1006A0000C23FEA2002100900F2000F0B4FE0120D8
:1006B000102313221E2100900F2000F022FF0120A2
:1006C000102314221E210090232000F01AFF012085
:1006D000102315221E210090372000F012FF012068
:1006E000102316221E2100904B2000F00AFF01204B
:1006F000102317221E2100905F2000F002FF00F05F
:10070000CBFC08BD08B5012010231C22002100905D
:10071000372000F0F6FE012010231D22002100905A
:10072000462000F0EEFE01200C23E0A210210090F4
:10073000002000F070FE01200C23DDA210210090AB
:10074000084600F068FE01200C23DDA21C21009069
:10075000102000F060FE01200C23DDA22821009073
:10076000102000F058FE01200C23DBA23421009061
:10077000102000F050FE00F08FFC08BD08B50120ED
:1007800010231C2200210090372000F0BAFE012027
:1007900010231D2200210090462000F0B2FE01200F
:1007A0000C23C3A210210090084600F034FE012063
:1007B0000C23BEA21C210090002000F02CFE012082
:1007C0000C23BFA21C210090102000F024FE012069
:1007D0000C23BFA228210090102000F01CFE012055
:1007E0000C23BDA234210090102000F014FE00F074
:1007F00053FC08BD08B5012010231C2200210090E5
:10080000372000F07EFE012010231D2200210090E1
:10081000462000F076FE01200C23A5A210210090B6
:10082000084600F0F8FD01200C23A5A21C21009031
:10083000102000F0F0FD01200C239CA22821009044
:10084000002000F0E8FD01200C23A1A22821009047
:10085000102000F0E0FD01200C239FA23421009025
:10086000102000F0D8FD00F017FC08BD08B50120ED
:1008700010231C2200210090372000F042FE0120AE
:1008800010231D2200210090462000F03AFE012096
:100890000C2387A210210090084600F0BCFD012027
:1008A0000C2387A21C210090102000F0B4FD012031
:1008B0000C2387A228210090102000F0ACFD01201D
:1008C0000C237AA234210090002000F0A4FD012026
:1008D0000C2381A234210090102000F09CFD00F038
:1008E000DBFB08BD88B000240027A046002007904D
:1008F0000590069079A003C8CDE9030179A103C949
:10090000CDE90101002601F0C9FA00F0E7FF00F08F
:1009100031FF01F065F901F07DF94FF4E13001F0AC
:1009200035FB01F089FA01F09DFA002000F074FB1C
:10093000002000F07FFBFFF769FC2CE201F079F862
:1009400004466CB97F1CB7F57A7F0CD9002700F0FC
:10095000C6FB002065490870002600F08FFB02E00E
:10096000002700F07DFB6148007858BB4FF496707B
:10097000B7FBF0F100FB117020BB00F0B0FB5C484E
:1009800001F0F3F907E001F054F804465848FFF786
:100990007BFD08F101085CB1042C09D0082C07D0BC
:1009A0000C2C05D00D2C03D00F2C01D0102C02D113
:1009B000B8F1C80FE7D30CB100F052FB4FF00008BC
:1009C00000F08DFB4B48006870BB079858BB00F0E7
:1009D00086FBFFF701FD4FF4967001F09CFA0020B2
:1009E00045490860C82001F096FA01204349C1F842
:1009F0008401C82001F08FFA00203F490860C82018
:100A000001F089FA01203C4908603B492C3108601B
:100A10004FF4FA5001F07FFA01200790002033498B
:100A2000087000F05CFB04E00020079032492C3194
:100A30000860304810380068012806D100202D4990
:100A40007831086000F00CFB03E00120294978317F
:100A50000860042C7DD0082CFCD00C2CFAD00D2C76
:100A6000F8D00F2CF6D0102CF4D0002CF2D00025AA
:100A7000A946AA46A34601201C490870761C012EEF
:100A800001D100F02CFB204601F069F8711E05AA87
:100A90005054012005AB00905A5C31E057656C63FF
:100AA0006F6D6520746F20726F6F74002D3E0000B3
:100AB0005573657250617373776F72640000000044
:100AC000526F6F7450617373776F7264000000002F
:100AD00054696D65000000004C65640031323334A8
:100AE0003536000030303030303000000005002056
:100AF000C4050020108123428401214200002142CC
:100B000001EB8101072303EB8101C8B210232221ED
:100B100000F0DDFB00F0C0FA12E000209E49086002
:100B200000F087FF04469D48007800EB40009C4998
:100B300001EB800080689B49086008460068804798
:100B4000A345EAD0012094490860062E72D1002501
:100B500014E070E005A8405D03A9495D884201D119
:100B600009F1010905A8405D01A9495D884201D14B
:100B70000AF1010A302005A948556D1C062DE9D35C
:100B8000B9F1060F28D100F0AAFAFFF725FC4FF4BF
:100B9000967001F0C0F900207F490860C82001F07C
:100BA000BAF901208049C1F88401C82001F0B3F9E5
:100BB000002079490860C82001F0ADF9012076498C
:100BC000086075492C31086041F2883001F0A3F9C2
:100BD0000020724908702AE0BAF1060F0AD10120FC
:100BE0007249086002206D49087000206A492C3162
:100BF00008601CE000F073FAFFF71AFC4FF49670DF
:100C000001F089F90020644908604FF47A7001F01E
:100C100082F901206449C1F8840140F6B83001F03E
:100C20007AF900205D4908705B492C310860002684
:100C300000F055FA00BF5948007810B900205B4910
:100C400008605A480068012879D1082C23D10A206D
:100C500001F061F9082C1ED10FE000F0EAFE044615
:100C60004E48007800EB40004D4901EB8000806861
:100C70004C490860084600688047082CEDD000F019
:100C80002EFA4648007800EB4000454901EB800011
:100C90004078424908700C2C23D10A2001F03BF91E
:100CA0000C2C1ED10FE000F0C4FE04463B48007837
:100CB00000EB40003A4901EB800080683949086048
:100CC0000846006880470C2CEDD000F008FA334845
:100CD000007800EB4000324901EB800080782F491A
:100CE0000870042C23D10A2001F015F9042C1ED120
:100CF0000FE000F09EFE04462848007800EB40001C
:100D0000274901EB80008068264908600846006892
:100D10008047042CEDD000F0E2F92048007800EB89
:100D200040001F4901EB8000C0781C490870102C5E
:100D300024D10A2001F0EFF8102C1FD110E01DE0A3
:100D400000F077FE04461548007800EB4000144997
:100D500001EB8000806813490860084600688047FE
:100D6000102CEDD000F0BBF90C48007800EB4000EF
:100D70000B4901EB800000790849087007480078AA
:100D800000EB4000064901EB8000806805490860DF
:100D9000084600688047D1E5840121420005002013
:100DA00008050020040500200000214280050020E5
:100DB000704700BFFEE700BFFEE700BFFEE700BFD1
:100DC000FEE7704770477047704700000CB5002081
:100DD000019000906C48006840F480306A490860D7
:100DE00000BF6948006800F4003000900198401C82
:100DF0000190009818B90198B0F5A06FF1D1624840
:100E0000006800F4003010B10120009001E00020E3
:100E100000900098012843D15C48006840F0100021
:100E20005A4908600846006820F003000860084638
:100E3000006840F00200086053484068524948602A
:100E40000846406848600846406840F48060486052
:100E50000846406820F47C1048600846406840F42A
:100E6000E81048600846006840F08070086000BFE5
:100E70004548006800F000700028F9D042484068FA
:100E800020F00300404948600846406840F00200F6
:100E9000486000BF3C48406800F00C000828F9D1C9
:100EA0000CBD10B5FFF792FF10BD10B536480068B5
:100EB00040F0010034490860084640683449084061
:100EC0003149486008460068324908402E490860A8
:100ED0000846006820F4802008600846406820F436
:100EE000FE0048604FF41F008860FFF7DAFF4FF004
:100EF00000602949086010BD10B5002100200022C3
:100F0000214B5B6803F00C0121B1042906D00829AC
:100F100028D107E0214B224C236027E01F4B204CB7
:100F2000236023E0184B5B6803F47010164B5B687A
:100F300003F48032022303EB904022B9194B434360
:100F4000174C23600DE0104B5B6803F4003323B1B2
:100F5000144B4343124C236003E0104B4343104CAB
:100F6000236003E00D4B0E4C236000BF00BF064B17
:100F70005B68C3F303130C4CE15C094B1B68CB406B
:100F8000074C236010BD000000100240002002400A
:100F90000000FFF8FFFFF6FE08ED00E000127A0007
:100FA0008405002000093D008805002070B5044636
:100FB0000E4626B10821F94801F015FA03E0082190
:100FC000F64801F012FA0121F54801F00EFA002569
:100FD00017E00121F14801F008FA04F0800020B187
:100FE0000221EE4801F0FFF903E00221EB4801F095
:100FF000FCF90121E94801F0F6F96006040E681CCD
:10100000C5B2082DE5DB0121E54801F0ECF9082126
:10101000E24801F0E8F970BD10B504461CB90021A2
:10102000A620FFF7C3FF012C03D10021A720FFF763
:10103000BDFF10BD10B504463CB90021C820FFF724
:10104000B5FF0021A120FFF7B1FF012C07D100213E
:10105000C020FFF7ABFF0021A020FFF7A7FF10BDC6
:1010600010B500218D20FFF7A1FF00211420FFF70C
:101070009DFF0021AF20FFF799FF10BD10B50021A3
:101080008D20FFF793FF00211020FFF78FFF002135
:10109000AE20FFF78BFF10BD70B500241CE004F1FB
:1010A000B001C8B20021FFF781FF00210846FFF719
:1010B0007DFF00211020FFF779FF002508E0B949E6
:1010C00001EBC501085D0121FFF770FF681CC5B287
:1010D000802DF4DB601CC4B2082CE0DB70BD70B561
:1010E00000240CE0002506E00020AE4901EBC5011C
:1010F0000855681CC5B2802DF6DB601CC4B2082CF4
:10110000F0DBFFF7C9FF70BDF0B514460B46CF17F3
:1011100001EB5777C7F3C702CF1701EB5777FF10E3
:10112000A1EBC707FEB20123B340DDB24CB19D4B2A
:1011300003EBC0039B5C2B439A4F07EBC007BB54E8
:101140001AE0984B03EBC0039B5CDB43954F07EB26
:10115000C007BB54934B03EBC0039B5C2B43914FE5
:1011600007EBC007BB548F4B03EBC0039B5CDB4317
:101170008C4F07EBC007BB54F0BD2DE9FF4F84B087
:1011800081468A460020029083460698A0EB090417
:101190000798A0EB0A06CDF80490CDF800A0002C2B
:1011A00001DD012705E00CB9002702E04FF0FF3711
:1011B0006442002E02DD4FF0010806E016B94FF040
:1011C000000802E04FF0FF386642B44201DD2546D8
:1011D00000E03546002003901EE0009AD1B2019A4B
:1011E000D0B2119AFFF790FF029820440290B344C6
:1011F0000298A84205DD0298401B029001983844ED
:101200000190AB4504DDABEB050B0098404400902A
:101210000398401C80B20390691C03988842DCDB71
:1012200008B0BDE8F08F2DE9F04306460F46904622
:101230000025444643E03A1BD1B27219D0B20122D4
:10124000FFF762FF3A1BD1B2721BD0B20122FFF747
:101250005BFF3A19D1B2721BD0B20122FFF754FFE3
:101260003A19D1B27219D0B20122FFF74DFF7A19A3
:10127000D1B23219D0B20122FFF746FF7A1BD1B2A8
:101280003219D0B20122FFF73FFF7A1BD1B2321BD5
:10129000D0B20122FFF738FF7A19D1B2321BD0B297
:1012A0000122FFF731FF6D1C05FB05F004FB040074
:1012B00008FB1809B9F1000F01DD641E6D1E600006
:1012C000604308FB08F18842B5DABDE8F0832DE9F8
:1012D000FE4F0746884692461C460197CDF800808F
:1012E000082C02D14FF006091FE02046E31704EB5B
:1012F0005373DB1021464FEAE47C04EB5C7C4FEA3D
:10130000EC0CA4EBCC0CBCF1000F02D04FF0010CA4
:1013100001E04FF0000C6344224604EBD27C4FEA1C
:101320006C0C03FB0CF303F0FF09AAF12000C6B21A
:1013300000256CE0082C07D106EB46001A4901EBAA
:10134000400010F805B01DE00C2C07D106EB46005C
:10135000164901EB800010F805B013E0102C05D100
:10136000134800EB061010F805B00BE0182C07D15D
:1013700006EBC6000F4901EB800010F805B001E054
:10138000BDE8FE8F002002902AE00BF0010098B12A
:10139000414638460C9AFFF7B7FE17E000100140AF
:1013A00000080140D40500203C2D0008642F0008EF
:1013B000D8330008C83900080C9808B9012000E0AB
:1013C0000020024641463846FFF79EFE4FEA6B0B6F
:1013D00008F1010000F0FF080298401CC0B2029022
:1013E00002980828D1DB781CC7B2082C0BD004EB7C
:1013F000D4714A100199791A8A4204D1019F009848
:101400000830C0B20090DDF80080681CC5B24D45C0
:1014100090DB00BFB4E72DE9F84106460F461446BD
:101420001D46DDF81C8013E0CDF8008022782B46A5
:1014300039463046FFF74BFF082D02D1B01DC6B22A
:1014400005E0284605EBD07106EB6101CEB2641CC5
:101450002078202802DB20787E28E5DDBDE8F881B1
:1014600010B50246012000E050430B00A1F1010439
:10147000E1B2F9D110BD2DE9FF4F82B00646914689
:101480001F46DDE90F4A4FF0000B082C01D14FF049
:10149000020B002530E0781B401EC1B20A20FFF786
:1014A000DFFFB9FBF0F00A21B0FBF1F201FB1208FB
:1014B000B8F1000F0ED104EBD4710BEB610101FB0D
:1014C0000561C8B223463022CDE900A40399FFF795
:1014D000FEFE0FE004EBD4710BEB610101FB056133
:1014E000C8B208F13001CAB22346CDE900A403997D
:1014F000FFF7EDFE681CC5B2BD42CCDB06B0BDE80F
:10150000F08F2DE9FC4F0746884616461C46BB4621
:10151000CDF804802046E21704EB5272D210214627
:10152000E31704EB5373DB10A4EBC3030BB10123EC
:1015300000E000231A44624392B20092002555E075
:10154000102C05D1DE4800EB461010F805A01BE07A
:10155000182C07D106EBC600DA4901EBC00010F8E1
:1015600005A011E0202C05D1D74800EBC61010F8DB
:1015700005A009E0402C05D1D44800EB462010F826
:1015800005A001E0BDE8FC8F4FF000091CE00AF067
:10159000010028B1414638460B9AFFF7B5FD09E036
:1015A0000B9808B9012000E0002002464146384669
:1015B000FFF7AAFD4FEA6A0A08F1010000F0FF08F0
:1015C00009F1010000F0FF09B9F1080FDFDB781C19
:1015D000C7B2A7EB0B00A04204D15F4601980830C8
:1015E000C0B20190DDF80480681C85B20098854285
:1015F000A6DB00BFC6E708B58046894692460026AE
:1016000000274BE04FB91023324618218020CDF837
:1016100000A0FFF776FF701CC6B2464522D14FF0FE
:10162000000B1AE0012410E000250AE0A84800EBB6
:10163000C400415D601EA64A02EBC0004155681C13
:10164000C5B2082DF2DB601CC4B2902CECDBFFF7B6
:1016500023FD0BF1010000F0FF0B4FEA0910584584
:10166000E0DC0026781CC7B2102F00D1002701242F
:1016700010E000250AE0964800EBC400415D601EC2
:10168000934A02EBC0004155681CC5B2082DF2DB3D
:10169000601CC4B2902CECDBFFF7FEFCB2E72DE936
:1016A000FF4F05460E4617461C46DDF838904FF0B2
:1016B000000A0095B3462046E21704EB5272D2109E
:1016C0002146E31704EB5373DB10A4EBC3030BB108
:1016D000012300E000231A44D4B24FF0000845E093
:1016E000002003903BE00D9810F80A0002900AF1E8
:1016F00001001FFA80FA002001901DE0029800F01E
:10170000010028B14A4631462846FFF7FDFC0AE0B1
:10171000B9F1000F01D1012000E00020024631465E
:101720002846FFF7F1FC029840100290701CC6B2E8
:101730000198401CC0B2019001980828DEDB681CAB
:10174000C5B20098281AB84204D1009D0BF10800D8
:1017500000F0FF0B5E460398401CC0B20390039854
:10176000B842C0DB08F1010000F0FF08A045B7DB7C
:10177000BDE8FF8F08B50121142001F043F80120D6
:10178000ADF8000010208DF8030003208DF8020052
:101790006946504800F07AFD01214E4800F023FED2
:1017A0000F20ADF8000010208DF8030003208DF805
:1017B00002006946484800F069FD0F21464800F0E4
:1017C00012FE0421444800F010FEC82000F0A3FBE4
:1017D0000421414800F007FE0021AE20FFF7E6FBA0
:1017E00000210846FFF7E2FB00211020FFF7DEFB97
:1017F00000214020FFF7DAFB00218120FFF7D6FB14
:101800000021CF20FFF7D2FB0021A120FFF7CEFB64
:101810000021C820FFF7CAFB0021A620FFF7C6FB66
:101820000021A820FFF7C2FB00213F20FFF7BEFBED
:101830000021D320FFF7BAFB00210846FFF7B6FBD3
:101840000021D520FFF7B2FB00218020FFF7AEFB7F
:101850000021D920FFF7AAFB0021F120FFF7A6FB0A
:101860000021DA20FFF7A2FB00211220FFF79EFBE8
:101870000021DB20FFF79AFB00214020FFF796FBB9
:1018800000212020FFF792FB00210220FFF78EFBB2
:1018900000218D20FFF78AFB00211420FFF786FB33
:1018A0000021A420FFF782FB0021A620FFF77EFB8A
:1018B000FFF715FC0021AF20FFF778FB08BD000003
:1018C00024470008E44A00082C4B0008AC4B0008F1
:1018D000D4050020000801400010014008B5012196
:1018E000842000F08FFF0420ADF8000010208DF858
:1018F000030003208DF802006946094800F0C6FC89
:101900000421074800F06FFD0420ADF8000069468F
:10191000044800F0BBFC0421024800F064FD08BD4F
:1019200000080140001C014008B50121182000F00A
:1019300069FF4FF47070ADF8000003208DF80200CD
:1019400010208DF8030069469D4800F09FFCF020B0
:10195000ADF8000069469B4800F098FC01209A49C8
:1019600008609A49C1F89C01974908310860091D2F
:10197000086097490860091D0860091D08609549BD
:10198000C1F89C0108BD38B504460121142000F0BF
:1019900039FF14B1012C4AD124E0F020ADF8000049
:1019A00048208DF8030069468B4800F06FFC4FF427
:1019B0007070ADF8000003208DF8020010208DF843
:1019C000030069467E4800F061FC00207E49086003
:1019D0007E49C1F89C017C49083108607B49C1F807
:1019E000A40124E0F020ADF8000003208DF80200EF
:1019F00010208DF803006946774800F047FC00206E
:101A0000734908607349C1F894017149083108604D
:101A10007049C1F89C014FF47070ADF80000482087
:101A20008DF803006946664800F030FC00BF00BF37
:101A300038BD70B5002400250120FFF7A4FF6248DF
:101A40007438006840B9052000F065FA5E487438C3
:101A5000006860BBE4B22CE05B487838006848B9A5
:101A6000052000F058FA584878380068F8B9201D69
:101A7000C4B21EE054487C38006850B9052000F01C
:101A80004AFA51487C38006888B904F10800C4B2A9
:101A90000FE04D488038006850B9052000F03BFA4F
:101AA00049488038006810B904F10C00C4B200E065
:101AB000002425460020FFF766FF4548743800687B
:101AC00048B9052000F027FA41487438006858BB2F
:101AD000601CC4B22AE03E487838006848B9052046
:101AE00000F019FA3A4878380068E8B9A01CC4B286
:101AF0001CE037487C38006848B9052000F00BFA34
:101B000033487C38006878B9E01CC4B20EE0304835
:101B10008038006848B9052000F0FDF92C4880386D
:101B2000006808B9201DC4B200E00024AC4201D115
:101B3000002070BD2046FCE710B5FFF77AFF044691
:101B40002648007828B124B1002024490870204696
:101B500010BD14B90120214908700020F8E70146A2
:101B6000002011292AD2DFE801F029090B0D0F11FD
:101B7000131517191B1D1F212325270031201DE0D8
:101B800032201BE0332019E0412017E0342015E01B
:101B9000352013E0362011E042200FE037200DE021
:101BA00038200BE0392009E0432007E02A2005E037
:101BB000302003E0232001E0442000BF00BF704735
:101BC00000100140000C0140980122420000224216
:101BD00090012142000021420008014098050020A8
:101BE00008B50121042000F00DFE0220ADF8000030
:101BF00010208DF8030003208DF802006946044888
:101C000000F044FB0221024800F0EDFB08BD00009B
:101C10000008014008B50121802000F0F3FD0120FB
:101C2000ADF8000028208DF8030003208DF8020095
:101C30006946024800F02AFB08BD0000001C014074
:101C400008B50121202000F0DDFD0120ADF80000E5
:101C500010208DF8030003208DF8020069466B48C0
:101C600000F014FB08BD08B50120ADF80000042009
:101C70008DF8030003208DF802006946634800F0E8
:101C800005FB08BD10B50121604800F092FB044639
:101C90000CB9002010BD0120FCE710B50446012C52
:101CA00004D10121594800F09EFB03E0012157486F
:101CB00000F09BFB10BD10B5044614B1204600F0A7
:101CC0002AF910BD10B5044614B1204600F0FFF803
:101CD00010BD70B5002400251BE06006040E00BF97
:101CE000FFF7D0FF0028FBD00A20FFF7EBFF0A2008
:101CF000FFF7E8FF0A20FFF7E5FFFFF7C3FF30B16A
:101D000044F0010400BFFFF7BDFF0028FBD1681CB1
:101D1000C5B2082DE1DB204670BD10B5FFF790FF7E
:101D20000020FFF7BAFF1220FFF7C5FF0120FFF7E1
:101D3000B4FF0A20FFF7C6FF0A20FFF7C3FF012008
:101D4000FFF7ABFFFFF78FFFFFF79CFF58B900BF0E
:101D5000FFF798FF0028FBD000BFFFF793FF002894
:101D6000FBD1012010BD0020FCE770B50446FFF751
:101D7000D4FF002848D0FFF7ACFF25490870FFF7D3
:101D8000A8FF24490870FFF7A4FF23490870FFF754
:101D9000A0FF22490870FFF79CFF21490870FFF758
:101DA0004FFF0120FFF779FF1B4800781B49097896
:101DB0000844174909780844164909780844C5B207
:101DC0001748007885421FD11148007815490870DE
:101DD00010480078144908700F48007813490870BB
:101DE0000E480078124908700D48007811490870B3
:101DF0000E48007820600E4800786060094800783E
:101E0000A06009480078E06070BD00000014014047
:101E1000A0050020A10500209E0500209F050020B0
:101E2000A20500209B0500209C05002099050020AC
:101E30009A0500209D05002008B50121802000F0B2
:101E4000E1FC1020ADF8000048208DF803000320CD
:101E50008DF802006946024800F018FA08BD00003B
:101E6000001C014008B50121042000F0CBFC4FF418
:101E70008050ADF8000010208DF8030003208DF88D
:101E800002006946034800F001FA00200249086098
:101E900008BD000000080140B001214210B56FF0FC
:101EA000040000F074F92E4800682E49B0FBF1F0F0
:101EB0002D4908700846007800EB4001C1EBC010C6
:101EC0004FF6FF7101EAC0002849088010BD0146A5
:101ED000254A12784A434FF0E0235A6100229A6162
:101EE0001A46126942F001021A6100BF4FF0E02267
:101EF000106900F001021AB100F48032002AF5D016
:101F00004FF0E022126922F001024FF0E0231A6143
:101F100000229A6170470146144A12884A434FF0E2
:101F2000E0235A6100229A611A46126942F00102C6
:101F30001A6100BF4FF0E022106900F001021AB1EF
:101F400000F48032002AF5D04FF0E022126922F02E
:101F500001024FF0E0231A6100229A6170470000ED
:101F60008405002000127A00A4050020A6050020A8
:101F700000BF704700BF4A4A128802F04002002AA0
:101F8000F9D0C2B2464B1B1D1A80704710B586B0FF
:101F90000446012144F2050000F034FC4FF40070C7
:101FA000ADF8140003208DF8160018208DF81700E6
:101FB00005A93C4800F06AF94FF48060ADF81400C0
:101FC00004208DF8170005A9364800F05FF9252098
:101FD0008DF8000003208DF801008DF8020001202B
:101FE0008DF80300684600F088F801940020ADF8F1
:101FF0000800ADF80A00ADF80C00ADF810000C2098
:10200000ADF80E0001A9264800F0A3FC012240F221
:102010002551234800F035FD0121214800F025FD20
:1020200006B010BD10B540F225511D4800F00EFE5F
:1020300010B31B4800F08AFDC4B21B48008800F4AE
:102040000040C8B91848008800F4804060B10A2CEC
:1020500003D000201449088020E01348008840F491
:1020600000401149088019E00D2C06D10E48008867
:1020700040F480400C49088010E00B480088C0F311
:102080000D000A490C5408480088401C0649088085
:1020900008460088C72801DD0020088010BD000028
:1020A0000038014000080140AC050020540A00201F
:1020B0000948804709480047FEE7FEE7FEE7FEE7DC
:1020C000FEE7FEE7FEE7FEE7FEE7FEE70448054918
:1020D000054A064B70470000AB0E000831010008AE
:1020E000800B002080110020800D0020800D00203A
:1020F00031490143314A1160704770B50021002316
:102100000F22C47804B32D4C246804F4E064C4F5B1
:10211000E064210AC1F10403CA40447804FA03F1DF
:102120008478144021430901254C0678A155047890
:1021300004F01F050124AC4005786D11AD0005F1D8
:10214000E025C5F8004109E0047804F01F050124EA
:10215000AC401C4D0678761145F8264070BD1A4AF1
:102160000A400243154B1B1F1A60704739B1134ACE
:10217000121D12680243114B1B1D1A6006E00F4A24
:10218000121D126882430D4B1B1D1A6070470428F4
:1021900008D14FF0E021096941F004014FF0E0223D
:1021A000116107E04FF0E021096921F004014FF0CF
:1021B000E0221161704700000000FA050CED00E01C
:1021C00000E400E080E100E080FFFF1F10B504465E
:1021D000CC48844208D10121042000F02DFB0021CD
:1021E000042000F029FB46E0C748844208D10121C1
:1021F000082000F021FB0021082000F01DFB3AE040
:10220000C248844208D10121102000F015FB0021B2
:10221000102000F011FB2EE0BD48844208D10121BE
:10222000202000F009FB0021202000F005FB22E027
:10223000B848844208D10121402000F0FDFA002175
:10224000402000F0F9FA16E0B348844208D1012199
:10225000802000F0F1FA0021802000F0EDFA0AE081
:10226000AE48844207D10121801500F0E5FA002133
:10227000A01500F0E1FA10BD10B50121084600F0EC
:10228000DBFA0021012000F0D7FA10BD2DE9F04162
:10229000024600250026002000230024002791F894
:1022A00003C00CF00F0591F803C00CF0100CBCF14A
:1022B000000F03D091F802C04CEA050591F800C068
:1022C000BCF1000F31D0146800202BE04FF0010C5E
:1022D0000CFA00F3B1F800C00CEA03069E4220D1CC
:1022E00083004FF00F0C0CFA03F7BC4305FA03FC14
:1022F0004CEA040491F803C0BCF1280F06D14FF05A
:10230000010C0CFA00FCC2F814C00AE091F803C0FA
:10231000BCF1480F05D14FF0010C0CFA00FCC2F8DB
:1023200010C0401C0828D1D31460B1F800C0BCF123
:10233000FF0F34DD546800202EE000F1080C4FF050
:10234000010808FA0CF3B1F800C00CEA03069E423B
:1023500021D183004FF00F0C0CFA03F7BC4305FAB0
:1023600003FC4CEA040491F803C0BCF1280F05D12A
:1023700000F1080C08FA0CF8C2F8148091F803C0B8
:10238000BCF1480F07D100F1080C4FF0010808FA22
:102390000CF8C2F81080401C0828CED35460BDE869
:1023A000F0814FF6FF710180022181700421C1701C
:1023B00070470246002093680B400BB1012000E0FB
:1023C000002070470146886880B2704702460020AE
:1023D000D3680B400BB1012000E00020704701469C
:1023E000C86880B2704701617047416170470AB1A7
:1023F000016100E041617047C16070474FF4803275
:102400000A43826181618261826982697047024602
:102410000020434B18684FF68073184040EA0210C2
:1024200008433F4B186070473E49C8617047F0B59C
:102430000A46002300240021002500F00046B6F1E2
:10244000004F02D1364EF16901E0354E7168C0F39C
:10245000034583B200F44016B6F5401F08D121F0C1
:1024600070612F4E766826F070662D4F7E6012E008
:1024700000F48016B6F5801F06D1032606FA05F48F
:10248000A14341F0706106E0460D360103FA06F6FD
:10249000B14341F0706122B1460D360103FA06F6F0
:1024A000314300F00046B6F1004F02D11C4EF161FD
:1024B00001E01B4E7160F0BD30B500228B071C0F90
:1024C0000F2303FA04F2164B08338C1053F8243010
:1024D0009343134C08348D1044F8253023468C1058
:1024E00053F824308C07240F00FA04F423430C4CD7
:1024F00008348D1044F8253030BD0A49DC310860BD
:102500007047000000080140000C0140001001402D
:102510000014014000180140001C0140002001404F
:102520000000014000002042DF48006840F0010048
:10253000DD49086008464068DC490840DA494860DF
:1025400008460068DA490840D7490860084600682C
:1025500020F4802008600846406820F4FE004860AF
:102560004FF41F0088607047CF49096821F480311B
:10257000CD4A11601146096821F480211160B0F53F
:10258000803F03D0B0F5802F0ED106E0C649096820
:1025900041F48031C44A116007E0C349096841F43D
:1025A000A021C14A116000E000BF00BF704710B514
:1025B00001460022002300204A11012A02D1BA4C10
:1025C000236806E0022A02D1B74C236A01E0B64C28
:1025D000636A01F01F02012494401C400CB10120E9
:1025E00000E0002010BD38B5002000900024002538
:1025F00000BF3120FFF7DBFF05460098401C00902C
:102600000098B0F5A06F01D0002DF2D03120FFF777
:10261000CEFF08B1012400E00024204638BD014669
:102620000020A14A106820F0F80040EAC1001060C4
:102630007047A04908607047024600209A4B5868CE
:1026400020F47C1042EA01031843974B586070470E
:1026500098490866704701460020934A506820F068
:1026600003000843506070478F48406800F00C003A
:102670007047014600208C4A506820F0F000084363
:102680005060704701460020874A506820F4E0609F
:1026900008435060704701460020834A506820F488
:1026A000605040EAC1005060704729B17E4A527ABA
:1026B00002437D4B5A7204E07B4A527A82437A4B42
:1026C0005A7270477B49D831086070470146002034
:1026D000754A506820F4404008435060704700211C
:1026E000714A20321170704A82F82010012802D0FD
:1026F00004280AD104E001216B4A2032117005E060
:102700000521694A2032117000E000BF00BF704708
:102710006949086070476449096A0143624A116265
:102720007047654944390860704730B50021002280
:10273000002400235C4D6D6805F00C0121B10429D3
:1027400005D0082923D105E05C4D056022E05B4DF2
:1027500005601FE0544D6D6805F47012524D6D68B0
:1027600005F48034022505EB92421CB9544D5543C3
:1027700005600BE04C4D6D6805F400351DB1504D02
:102780005543056002E04D4D5543056002E04B4D59
:10279000056000BF00BF444D6D6805F0F0010909F8
:1027A000484D6B5C0568DD4045603F4D6D6805F444
:1027B000E061090A434D6B5C4568DD4085603A4D38
:1027C0006D6805F46051C90A3E4D6B5C4568DD409B
:1027D000C560354D6D6805F44041890B3A4D6B5C21
:1027E000C568B5FBF3F5056130BD29B12E4A5269C4
:1027F00002432D4B5A6104E02B4A526982432A4B13
:102800005A61704729B1284A92690243264B9A615E
:1028100004E0254A92698243234B9A61704729B1AB
:10282000214AD2690243204BDA6104E01E4AD26990
:1028300082431D4BDA61704729B11B4AD2680243BB
:10284000194BDA6004E0184AD2688243164BDA600A
:10285000704729B1144A12690243134B1A6104E00C
:10286000114A12698243104B1A617047124940396C
:10287000086070470F49C86470470B49C8717047BA
:102880000948406A40F08070074948627047014635
:102890000020054A92680A400AB1012000E00020A9
:1028A0007047014988727047001002400000FFF82D
:1028B000FFFFF6FE000042428004424200127A000E
:1028C00000093D00AE050020BE05002010B50446FD
:1028D000FB48844209D101218803FFF7ADFF0021A5
:1028E0004FF48040FFF7A8FF32E0F648844209D158
:1028F00001214804FFF7ADFF00214FF40030FFF73E
:10290000A8FF25E0F048844209D101218804FFF79F
:10291000A0FF00214FF48020FFF79BFF18E0EB4859
:10292000844209D10121C804FFF793FF00214FF42D
:102930000020FFF78EFF0BE0E548844208D101211B
:102940000805FFF786FF00214FF48010FFF781FF95
:1029500010BD2DE9F04786B005460E460024A2467C
:1029600000BFA1460027B08900B100BF2F462C8AC6
:102970004CF6FF700440F08804432C82AC894EF67C
:10298000F3100440B0883189084371890843044337
:10299000AC81AC8A4FF6FF400440B0890443AC825E
:1029A00001A8FFF7C2FEC648874202D1DDF810A099
:1029B00001E0DDF80CA0A88900F4004040B10AEB6A
:1029C000CA0000EB0A1031684900B0FBF1F807E0DB
:1029D0000AEBCA0000EB0A1031688900B0FBF1F87D
:1029E0006420B8FBF0F004012009642101FB108988
:1029F000A88900F4004040B1322000EBC900B0FBD0
:102A0000F1F000F00700044308E0322000EB091069
:102A10006421B0FBF1F000F00F0004432C8106B0FC
:102A2000BDE8F0874FF41651016000218180C1801C
:102A300001810C21418100218181704710B502463E
:102A40000020108A4FF2FF0318400B884C88234364
:102A50008C882343CC8823431843108210BD002167
:102A6000018041808180C180704721B1828942F418
:102A70000052828104E082894DF6FF731A40828100
:102A80007047F0B50346002400260025002040F6DC
:102A90006A17B94200D100BF1846C1F3421401F0D1
:102AA0001F06012707FA06F5012C01D10C3004E0BE
:102AB000022C01D1103000E014301AB107682F4306
:102AC000076002E00768AF430760F0BD1AB1838A70
:102AD0000B43838202E0838A8B4383827047028A9E
:102AE0004FF6F0731A400282028A0A43028270474C
:102AF00082894FF2FF731A40828182890A43828160
:102B0000704721B1828942F00202828104E0828909
:102B10004FF6FD731A4082817047028A4FF6DF73C9
:102B20001A400282028A0A430282704721B1028A55
:102B300042F48042028204E0028A4BF6FF731A409C
:102B400002827047C1F3080282807047014688887C
:102B5000C0F308007047818941F00101818170470D
:102B6000028BD2B20283028B42EA012202837047B7
:102B7000028B02F47F420283028B0A430283704776
:102B800021B1828A42F02002828204E0828A4FF6DA
:102B9000DF731A408282704721B1828A42F01002AC
:102BA000828204E0828A4FF6EF731A408282704775
:102BB00021B1828A42F00802828204E0828A4FF6C2
:102BC000F7731A408282704721B1828942F4004231
:102BD000828103E08289C2F30E028281704721B1B3
:102BE000828A42F40062828204E0828A4FF2FF739A
:102BF0001A4082827047828A4FF6FB731A408282A3
:102C0000828A0A438282704721B1828A42F002029C
:102C1000828204E0828A4FF6FD731A4082827047F6
:102C200002460020B1F5007F00D100BF13880B40A1
:102C30000BB1012000E00020704701F40072B2F5F2
:102C4000007F00D100BFCA430280704770B50246C2
:102C5000002400230025002040F66A16B14200D16E
:102C600000BFC1F3421501F01F03012606FA03F36A
:102C7000012D02D19689334006E0022D02D1168A39
:102C8000334001E0968A33400C12012606FA04F420
:102C90001688344013B10CB1012000E0002070BD53
:102CA00010B50022002340F66A14A14200D100BFF3
:102CB0000A1201249440A3B2DC43048010BD00003A
:102CC000003801400044004000480040004C0040F3
:102CD0000050004070477047704770477047754616
:102CE00000F028F8AE4605006946534620F007007C
:102CF000854618B020B5FFF7E9F9BDE820404FF050
:102D000000064FF000074FF000084FF0000B21F0D5
:102D10000701AC46ACE8C009ACE8C009ACE8C009A2
:102D2000ACE8C0098D4670470446AFF300802046EA
:102D3000FDF765FA004870471C0B002000000000FA
:102D400000000000002F0000000007000700001432
:102D50007F147F1400242A7F2A1200626408132340
:102D600000364955225000000503000000001C22D7
:102D70004100000041221C000014083E0814000815
:102D8000083E0808000000A06000000808080808C5
:102D9000000060600000002010080402003E51495D
:102DA000453E0000427F40000042615149460021FB
:102DB00041454B31001814127F1000274545453915
:102DC000003C4A4949300001710905030036494970
:102DD000493600064949291E000036360000000029
:102DE0005636000000081422410000141414141474
:102DF000000041221408000201510906003249591D
:102E0000513E007C1211127C007F49494936003E38
:102E100041414122007F4141221C007F49494941F3
:102E2000007F09090901003E4149497A007F0808ED
:102E3000087F0000417F4100002040413F01007FAA
:102E400008142241007F40404040007F020C027F76
:102E5000007F0408107F003E4141413E007F090988
:102E60000906003E4151215E007F091929460046AE
:102E7000494949310001017F0101003F4040403F85
:102E8000001F2040201F003F4038403F00631408CF
:102E900014630007087008070061514945430000AA
:102EA0007F41410000552A552A55000041417F00CD
:102EB00000040201020400404040404000000102C2
:102EC0000400002054545478007F484444380038AB
:102ED0004444442000384444487F00385454541833
:102EE00000087E0901020018A4A4A47C007F080445
:102EF00004780000447D4000004080847D00007F15
:102F0000102844000000417F4000007C0418047831
:102F1000007C0804047800384444443800FC24242D
:102F200024180018242418FC007C08040408004815
:102F30005454542000043F444020003C4040207C36
:102F4000001C2040201C003C4030403C0044281025
:102F50002844001CA0A0A07C004464544C441414D9
:102F60001414141400000000000000000000000011
:102F70000000FC000000000002000000000C020C39
:102F8000020000000000000090D0BCD0BC90000304
:102F9000000300001824FE448C0003020702010015
:102FA0001824D8B04C80000300010201C038E43876
:102FB000E000010202010202080600000000000019
:102FC00000000000000000F80402000000010204FC
:102FD000000204F800000004020100009060F860A4
:102FE00090000000010000002020FC2020000000D4
:102FF00001000000000000000000080600000000C2
:103000002020202020000000000000000000000020
:1030100000000002000000000080601C02000403A9
:1030200000000000F8040404F8000102020201009C
:103030000008FC0000000002030200001884442481
:10304000180003020202020008042424D80001022E
:103050000202010040B088FC800000000003020072
:103060003C242424C400010202020100F824242C80
:10307000C0000102020201000C04E41C0400000074
:1030800003000000D8242424D80001020202010019
:1030900038444444F800000302020100000010001C
:1030A00000000000020000000000200000000000FE
:1030B0000600000000205088040200000000010209
:1030C00090909090900000000000000000020488A2
:1030D00050200002010000001804C4241800000061
:1030E00002000000F804E494F80001020202020069
:1030F00000E09CF0800002030000030204FC242492
:10310000D800020302020100F80404040C000102CA
:103110000202010004FC0404F800020302020100A0
:1031200004FC24740C0002030202030004FC247457
:103130000C00020302000000F0080444CC4000012F
:103140000202010004FC2020FC0402030000030230
:103150000404FC040400020203020200000404FC54
:10316000040406040403000004FC24D00C0402033D
:103170000200030204FC0400000002030202020336
:10318000FC3CC03CFC0003000300030004FC30C412
:10319000FC04020302000300F8040404F800010226
:1031A0000202010004FC24241800020302000000B3
:1031B000F8848404F80001020207050004FC24647A
:1031C0009800020302000302182424448C00030226
:1031D000020201000C04FC040C00000203020000C7
:1031E00004FC0000FC04000102020100047C80E0F9
:1031F0001C040000030000001CE03CE01C00000375
:1032000000030000049C609C040002030003020011
:10321000041CE01C04000002030200000C84641C77
:1032200004000203020203000000FE02020000008C
:1032300007040400000E30C000000000000102007E
:10324000000202FE00000004040700000004020463
:10325000000000000000000000000000000008085E
:10326000080808080000020000000000000000003C
:103270000040A0A0C00000010202030204FC2020C4
:10328000C00000030202010000C020206000000115
:103290000202020000C02024FC000001020203021E
:1032A00000C0A0A0C0000001020202000020F8241B
:1032B00024040002030202000040A0A060200007D6
:1032C0000A0A0A0404FC2020C000020302000302D0
:1032D0000020E4000000000203020000000020E4DF
:1032E000000008080807000004FC80E0202002031A
:1032F000020003020404FC000000020203020200B8
:10330000E020E020C00003000300030020E02020B4
:10331000C00002030200030200C02020C000000120
:103320000202010020E02020C000080F0A02010074
:1033300000C02020E0000001020A0F0820E0402029
:1033400020000203020000000060A0A02000000294
:10335000020203000020F820000000000102020029
:1033600020E00020E00000010202030220E02080B3
:1033700060200000030100006080E0806000000326
:1033800000030000206080602000020300030200B0
:1033900020E0208060200808070100000020A060D5
:1033A0002000000203020200000020DE02000000F4
:1033B00000070400000000FF00000000000F0000F4
:1033C0000002DE20000000040700000002010204E9
:1033D00004020000000000000000000000000000E7
:1033E0000000000000000000000000F800000000E5
:1033F000000000333000000000100C06100C060026
:10340000000000000000000040C07840C07840008C
:10341000043F04043F040400007088FC08300000EE
:10342000001820FF211E0000F008F000E018000046
:1034300000211C031E211E0000F0088870000000FF
:103440001E2123241927211010160E000000000051
:103450000000000000000000000000E0180402006E
:10346000000000071820400000020418E0000000DF
:103470000040201807000000404080F080404000DD
:103480000202010F01020200000000F00000000033
:103490000101011F01010100000000000000000007
:1034A00080B070000000000000000000000000007C
:1034B0000001010101010101000000000000000005
:1034C00000303000000000000000000080601804A0
:1034D000006018060100000000E010080810E0007D
:1034E000000F102020100F00001010F80000000046
:1034F0000020203F2020000000700808088870008D
:10350000003028242221300000300888884830000C
:103510000018202020110E000000C02010F800002C
:1035200000070424243F240000F8088888080800C5
:103530000019212020110E0000E0108888180000DA
:10354000000F112020110E0000380808C8380800AC
:103550000000003F0000000000708808088870002C
:10356000001C222121221C0000E010080810E000AD
:103570000000312222110F00000000C0C000000036
:10358000000000303000000000000080000000005B
:103590000000806000000000000080402010080053
:1035A000000102040810200040404040404040001C
:1035B00004040404040404000008102040800000F7
:1035C0000020100804020100007048080808F000FC
:1035D0000000003036010000C030C828E810E000CC
:1035E0000718272423140B000000C038E000000057
:1035F000203C23020227382008F8888888700000C1
:10360000203F202020110E00C03008080808380094
:10361000071820202010080008F808080810E0000B
:10362000203F202020100F0008F88888E8081000AC
:10363000203F20202320180008F88888E808100080
:10364000203F200003000000C030080808380000B8
:1036500007182020221E020008F808000008F808B9
:10366000203F210101213F20000808F80808000040
:103670000020203F2020000000000808F808080073
:10368000C08080807F00000008F888C028180800EB
:10369000203F20012638200008F808000000000024
:1036A000203F20202020300008F8F800F8F808001B
:1036B000203F003F003F200008F830C00008F80815
:1036C000203F200007183F00E01008080810E00025
:1036D0000F10202020100F0008F808080808F0003C
:1036E000203F210101010000E01008080810E0005F
:1036F0000F18242438504F0008F8888888887000F4
:10370000203F2000030C3020007088080808380093
:103710000038202121221C00180808F80808180089
:103720000000203F2000000008F808000008F8080A
:10373000001F202020201F000878880000C83808BB
:10374000000007380E010000F80800F80008F80033
:10375000033C0700073C03000818688080681808CD
:1037600020302C03032C30200838C800C83808004B
:103770000000203F2000000010080808C83808009A
:103780002038262120201800000000FE020202003E
:103790000000007F40404000000C30C000000000EE
:1037A000000000010638C00000020202FE00000016
:1037B000004040407F0000000000040202020400BC
:1037C00000000000000000000000000000000000F9
:1037D00080808080808080800002020400000000E1
:1037E00000000000000000000000808080800000D9
:1037F0000019242222223F2008F8008080000000C7
:10380000003F112020110E00000000808080000089
:10381000000E112020201100000000808088F80098
:10382000000E112020103F200000808080800000CA
:10383000001F222222221300008080F0888888182E
:103840000020203F20200000000080808080800039
:10385000006B94949493600008F8008080800000CE
:10386000203F210000203F200080989800000000A9
:103870000020203F202000000000008098980000D9
:1038800000C08080807F000008F8000080808000F9
:10389000203F24022D302000000808F8000000001E
:1038A0000020203F202000008080808080808000D9
:1038B000203F20003F20003F80800080808000006B
:1038C000203F210000203F200000808080800000F9
:1038D000001F202020201F0080800080800000002A
:1038E00080FFA12020110E00000000808080800059
:1038F000000E112020A0FF8080808000808080004A
:1039000020203F2120000100000080808080800076
:103910000033242424241900008080E080800000EB
:103920000000001F20200000808000000080800038
:10393000001F202020103F20808080000080808099
:1039400000010E3008060100808000800080808029
:103950000F300C030C300F0000808000808080004E
:103960000020312E0E312000808080000080808079
:1039700080818E7018060100008080808080800029
:103980000021302C2221300000000000807C020247
:1039900000000000003F404000000000FF00000069
:1039A00000000000FF0000000002027C8000000018
:1039B0000040403F00000000000601010202040434
:1039C00000000000000000000000000000000000F7
:1039D00000000000000000000000000000000000E7
:1039E00000000000000000000000000000000000D7
:1039F00000F0F0F0000000000000000000017F0176
:103A00000000000000000000001C1C1C0000000062
:103A100000008060301C8C60301C0C000000000036
:103A20000000000000000000000000000000000096
:103A300000000000000000E00000000000E00000C6
:103A40000086E69F86868686E69F860000011F0127
:103A5000010101011F010100000080C06020F82069
:103A6000E0C00000000003070C18FF70E1810000B7
:103A70000000070F10107F100F070000806020600B
:103A800080000000E02000000F3020309F70DC3705
:103A90001030C0000000100E0300071810180700B7
:103AA0000000C02020E0C0000000000080E01F38BF
:103AB000E88703C43C040000070F1810100B070D23
:103AC0001010080000808C4C38000000000000003E
:103AD00000000000000000000000000000000000E6
:103AE000000000000000000000000000000080E076
:103AF000300804000000000000FEFF01000000008C
:103B0000000000000000030F1820400000040830EF
:103B1000E0800000000000000000000001FFFE0047
:103B200000000000004020180F030000000000000B
:103B3000000000000000C0000000000000426666B7
:103B40003C18FF183C6666420000000000000300BD
:103B500000000000000000000000800000000000E5
:103B6000001010101010FF101010101000000000B6
:103B70000000030000000000000000000000000042
:103B80000000000000000000000000000000000035
:103B900000808C4C38000000000000000000000095
:103BA00000000000000000000010101010101010A5
:103BB00010101000000000000000000000000000D5
:103BC00000000000000000000000000000000000F5
:103BD000000000000000000000001C1C1C00000091
:103BE000000000000000000000000000E0380C00B1
:103BF0000000000080701C03000000000060380E10
:103C00000100000000000000000080C06020206073
:103C1000C080000000FEFF010000000001FFFE0068
:103C20000001070E181010180E0701000000808018
:103C300080C0E000000000000000000000FFFF0066
:103C40000000000000001010101F1F1010100000D6
:103C50000080402020202060C0800000000303007E
:103C6000804020381F070000001C1A191818181867
:103C7000181F00000080C020202060C080000000CD
:103C8000000303001010182FE780000000070F103A
:103C9000101010180F070000000000000000C0E026
:103CA000F000000000C0B088868180FFFF808000A7
:103CB000000000000010101F1F1010000000E06046
:103CC000606060606060000000003F100808081835
:103CD000F0E0000000070B101010101C0F03000094
:103CE000000080C040202020E0C0000000FCFF2138
:103CF0001008080818F0E0000001070C1810101058
:103D0000080F03000000C0E06060606060E06000D9
:103D1000000003000000E0180700000000000000A1
:103D2000001F1F00000000000080C0602020202035
:103D300060C080000087EF2C1818303068CF8300F7
:103D400000070F0810101010180F07000000C0C067
:103D500020202020C0800000001F3F604040402005
:103D600010FFFE0000000C1C101010080F030000D4
:103D70000000000000000000000000000000000043
:103D8000000E0E0E0000000000000000001C1C1CB5
:103D90000000000000000000000000000000000023
:103DA00000000000000C0C000000000000000000FB
:103DB00000583800000000000000000000000080F3
:103DC0004020100000001028448201000000000084
:103DD00000000000000001020408100000000000C4
:103DE0000000000000000000008484848484848437
:103DF0008484840000000000000000000000000037
:103E000000001020408000000000000000000000C2
:103E10000000018244281000000010080402010084
:103E20000000000000C020201010101030E0C00082
:103E30000003030000F010080C070300000000005E
:103E40001C1C1C0000000000000000C0406020207E
:103E50002040C00000FCFF01F00E03C1FE03807F84
:103E60000001070E081111101109040200000000E2
:103E700080E0E000000000000000807C4340477FBD
:103E8000F880000010181F1000000000131F1C1005
:103E900020E0E02020202060C080000000FFFF1014
:103EA000101010182FE78000101F1F101010101096
:103EB000180F0700000080C0402020202060E00094
:103EC00000FCFF0100000000000001000001070EDF
:103ED000181010100804030020E0E02020202040EB
:103EE000C080000000FFFF000000000001FFFE0096
:103EF000101F1F10101018080E07010020E0E0200E
:103F0000202020202060800000FFFF101010107C77
:103F100000000000101F1F101010101010180600D5
:103F200020E0E020202020206060800000FFFF10C3
:103F30001010107C00000100101F1F100000000076
:103F400000000000000080C06020202040E0000051
:103F500000FCFF0100004040C0C140400001070ECE
:103F6000181010100F0F000020E0E02000000000EB
:103F700020E0E02000FFFF101010101010FFFF00E5
:103F8000101F1F1000000000101F1F100000202035
:103F900020E0E020202000000000000000FFFF00E3
:103FA0000000000000001010101F1F101010000073
:103FB00000000000202020E0E02020200000000081
:103FC000000000FFFF0000000060E0808080C07FF4
:103FD0003F00000020E0E020000020A06020200042
:103FE00000FFFF30187CE3C000000000101F1F100E
:103FF000000001131F1C181020E0E020000000004A
:104000000000000000FFFF000000000000000000B2
:10401000101F1F10101010101018060020E0E0E014
:1040200000000000E0E0E02000FF013FFEC0E01ED5
:1040300001FFFF00101F1000031F0300101F1F10BF
:1040400020E0E0C0000000000020E02000FF0003AE
:10405000071C78E08000FF00101F10000000000027
:10406000030F1F00000080C060202060C08000009F
:1040700000FEFF010000000000FFFE000001070E2F
:10408000181010180C07010020E0E020202020204C
:1040900060C0800000FFFF2020202020301F0F0084
:1040A000101F1F100000000000000000000080C072
:1040B00060202060C080000000FEFF0100000000C2
:1040C00000FFFE000001070E1111133C7C67210068
:1040D00020E0E0202020202060C0800000FFFF10B2
:1040E0001030F0D0080F0700101F1F100000000351
:1040F0000F1C10100080C060202020204040E000F5
:1041000000070F0C1818303060E08100001F0C0809
:1041100010101010180F07008060202020E0E02011
:10412000202060800100000000FFFF00000000016F
:1041300000000000101F1F100000000020E0E02021
:10414000000000000020E02000FFFF000000000051
:104150000000FF0000070F181010101010080700D3
:104160002060E0E02000000020E060200000077FE9
:10417000F88000807C03000000000000071F1C077F
:104180000000000020E0E02000E0E0200020E0202F
:104190000007FFF8E01FFFFCE01F00000000031F06
:1041A0000300011F03000000002060E0A0000020C9
:1041B000E0602000000000038F7CF8C601000000D2
:1041C0000010181E130001171F1810002060E0E0F7
:1041D0002000000020E06020000001073EF8E01809
:1041E0000700000000000010101F1F10100000004A
:1041F00000806020202020A0E0E0200000000000DF
:10420000C0F03E0F0300000000101C1F171010101C
:10421000101806000000000000FC04040404040060
:104220000000000000FF000000000000000000008F
:10423000007F404040404000000010E000000000CF
:104240000000000000000000031C6080000000006F
:1042500000000000000000030C7080000000040457
:10426000040404FC0000000000000000000000FF47
:1042700000000000000040404040407F000000007F
:1042800000000010080C040C0810000000000000E2
:10429000000000000000000000000000000000001E
:1042A000000000000000000000000000000000000E
:1042B00000000000000000000000000080808080FE
:1042C00080808080808080800000000404080800D6
:1042D00000000000000000000000000000000000DE
:1042E00000000000000000000000000000000000CE
:1042F0000000000000000000000098D8446424245E
:10430000FCF80000000F1F18101010081F1F1018D5
:104310000020E0F000000000000000000000FFFFAF
:10432000180804040CF8F00000001F0F18101010FB
:10433000180F030000000000000000000000000053
:1043400000E0F8180404043C3800000000030F0CDF
:1043500010101010080600000000000000000020EF
:10436000E0F0000000E0F81C04040408FFFF000077
:1043700000030F18101010081F0F080000000000A5
:1043800000000000000000000000E0F84844444441
:104390004C7870000000030F0C1810101008040077
:1043A0000000000080C0602020E0C0000004040481
:1043B000FFFF040404040000000010101F1F101071
:1043C00010000000000000000000000000000000DD
:1043D000000070F88C04048CF874040C007076CF24
:1043E0008D8D8D89C87870000020E0F000000000FD
:1043F000000000000000FFFF08040404FCF80000B7
:1044000000101F1F100000101F1F100000000000F0
:1044100000606000000000000000040404FCFC00D8
:104420000000000000001010101F1F1010100000EE
:1044300000000000000000606000000000000000BC
:10444000040404FCFC0000000000C0C08080C07FA9
:104450003F0000000020E0F000000000000000002D
:104460000000FFFF80C0F41C0404000000101F1FA8
:104470001100031F1C1010000000202020E0F0009D
:10448000000000000000000000FFFF00000000002E
:1044900000001010101F1F1010100000000000007E
:1044A000000000000000000004FCFC0804FCFC0804
:1044B00004FCFC00101F1F10001F1F10001F1F1006
:1044C0000000000000000000000000000004FCFCF0
:1044D00008080404FCF8000000101F1F1000001062
:1044E0001F1F10000000000000000000000000007E
:1044F00000E0F0180C04040C18F0E00000030F0CAE
:10450000101010100C0F030000000000000000004D
:10451000000000000004FCFC080404040CF8F00097
:104520000080FFFF889010101C0F030000000000A7
:10453000000000000000000000E0F81C0404040873
:10454000F8FC000000030F1810109088FFFF800097
:10455000000000000000000000000000040404FC53
:10456000FC100804040C0C001010101F1F10101079
:10457000000000000000000000000000000000003B
:1045800000003078CCC48484840C1C0000001E1809
:1045900010101011190F06000000000000C00000EC
:1045A0000000000000040404FFFF040404000000F5
:1045B000000000000F1F1010100C00000000000091
:1045C00000000000000000000004FCFE00000004E9
:1045D000FCFE000000000F1F181010081F0F08003D
:1045E00000000000000000000000000000040C3C7F
:1045F000FCC40000C43C0C0400000000010F1E0EAF
:1046000001000000000000000000000000000000A9
:10461000043CFCC400E47CFC84807C040000071F94
:10462000070000071F070000000000000000000056
:10463000000000000004041C7CE4C0341C040400DE
:104640000010101C1601131F1C18100000000000A1
:10465000000000000000000000040C3CFCC400C48A
:104660003C0404000000C080C1370E0100000000BF
:1046700000000000000000000000000000001C041A
:1046800004C4F47C1C0400000000101C1F1711104F
:1046900010180E0000000000000000F80C040000DC
:1046A00000000000001028EF0000000000000000E3
:1046B0000000003F60400000000000000000FF001C
:1046C00000000000000000000000FF0000000000EB
:1046D000000000000000FF00000000000000040CCB
:1046E000F80000000000000000000000EF281000AB
:1046F00000000000000040603F00000000000000DB
:1047000000180602020408102020300800000000F3
:104710000000000000000000000000000000000099
:10472000000000004042CC0000445454547F5454D4
:104730005444400000007F201000FF1515155595CA
:104740007F00000088681FC80810C85452D1129416
:1047500008D01000091909FF0500FF1292FF005F41
:10476000807F0000000000000001E21CE00000006B
:1047700000000000804020100C03000000030C30FB
:1047800040808000108C4404E40495A644241484E2
:1047900044940C0002027A414143427E4242424329
:1047A000F80000000484E45C44C40002F2828282C7
:1047B000FE80800002017F10103F000808080848B2
:1047C00088403F0004244484649C40300FC808089B
:1047D0002818000010080601824C2018060106184F
:1047E00020408000404042CC0000FC040200FC0459
:1047F00004FC00000040201F20404F4442407F4204
:10480000444340000000FE0202F2121212F20202C1
:10481000FE00000000007F202027242424272020E1
:104820007F000000102C2424A4A465A624242424A2
:10483000A4340C0040494929241452897F040A11E8
:104840001020200000F8010600000202020202020D
:1048500002FE000000FF0000000000000000004019
:10486000807F000020102CE7242400E22C20BF20B1
:1048700028E600000101017F2111804F20100F1058
:10488000204F80000000E28282828282828282FE49
:104890000000000000003F40404040404040404099
:1048A00040780000101010FF109004040404FC0471
:1048B000040404000444827F0100000040807F0063
:1048C0000000000080828282FE8282828282FE82DA
:1048D00082828000008040300F0000000000FF0056
:1048E00000000000108C4404E40495A644241484C1
:1048F00044940C0002027A414143427E42424243C8
:10490000F80000000484E45C44C40002F282828265
:10491000FE80800002017F10103F00080808084850
:1049200088403F004030EF246448487F4848487F33
:104930004848400001017F211100FF494949494988
:10494000FF0000004042CC0000809E929292929222
:104950009E80000000007F2094844424140F1424BF
:1049600044848400000000FE0000000000000000FD
:104970000000000000000033000000000000000004
:104980000000000080828282FE8282828282FE8219
:1049900082828000008040300F0000000000FF0095
:1049A000000000000000181610D0B8979090909268
:1049B000941000000020108C838041462810284469
:1049C00043808000202024242424BF64243428240D
:1049D0002220200010080402FF494949494949FFA3
:1049E000000000001010D0FF9014E4AFA4A4A4AF06
:1049F000E4040000040300FF00894B2A1A0E1A2A5F
:104A00004B888000101090909090901010FF101024
:104A100011161000002060203F10101000030C1031
:104A20002040F8001060028C0000FE929292929258
:104A3000FE00000004047E01407E42427E427E422F
:104A4000427E40000000FC242424FC252624FC2473
:104A50002424040040308F80844C55252525554C56
:104A6000808080001060028C00FE9292929292925E
:104A7000FE00000004047E014448507F40407F5007
:104A8000484440000000FC242424FC252624FC2467
:104A90002424040040308F80844C55252525554C16
:104AA00080808000404042CC0040A09E8282829E56
:104AB000A02020000000003F908840432C10284692
:104AC00041808000001715D55557557D555755D550
:104AD000151700004040407F555555555555557F99
:104AE00040404000000000C080808080808080FCCA
:104AF00084808080808080C0C0000000000000FFB3
:104B00007F404040404040FF40404040404040FFE8
:104B10007F00000000000000000000000000007F97
:104B20007000000000000000000000000000000015
:104B30000000000000000000000000FCF800000081
:104B40000000000000000000000000000000000065
:104B5000FFFE020202020202020202FFFF02020242
:104B6000020202020202FF03000000000000000037
:104B70001F1F040404040404040404FFFF040404C9
:104B80000404040404041F000000000000000000EE
:104B900000000000000000000000007F3F00000057
:104BA0000000000000000000000000000000000005
:104BB00000000000000000000000000000000000F5
:104BC000000000000000000000F8F8F0F070200085
:104BD00000000000000000000000000000000000D5
:104BE00000000000000000000000000000000000C5
:104BF0000000000080000000000000000000000035
:104C0000000000000000000000FFFFFFFF000000A8
:104C10000000000000000000000000000000000094
:104C20008080000000000000000000000000000084
:104C30000000000000FFFFFE060606060606060648
:104C4000060606060606060606FFFFFFFF06060620
:104C5000060606060606060606060606060606FFFB
:104C6000FFFFFF070200000000000000000000003E
:104C70000000000000FFFFFF000000000000000037
:104C8000000000000000000000FFFFFFFF00000028
:104C9000000000000000000000000000000000FF15
:104CA000FFFFFF0000000000000000000000000007
:104CB0000000000000FFFFFF181818181818181837
:104CC000181818181818181818FFFFFFFF181818C8
:104CD000181818181818181818181818181818FF6D
:104CE000FFFFFF00000000000000000000000000C7
:104CF00000000000020101000000000000000000B0
:104D0000000000000000000000FFFFFFFF000000A7
:104D10000000000000000000000000000000000192
:104D20000100000000000000000000000000000082
:104D30000000000000000000000000000000000073
:104D4000000000000000000000FFFFFFFF00000067
:104D50000000000000000000000000000000000053
:104D60000000000000000000000000000000000043
:104D70000000000000000000000000000000000033
:104D80000000000000000000001F1F0F0F000000C7
:104D90000000000000000000000000000000000013
:104DA000000000000000000000000000CC4D0008E2
:104DB00000000020C40500006C010008204F00081E
:104DC000C4050020BC0B0000C801000811100A0334
:104DD000050911FF118905C312E012F072F8073DB1
:104DE0004428FF11AA44700B8301384482929274C4
:104DF000018328087C44FF017D7D7D044905647D95
:104E000001FF9A0102818A010B013669419949FA31
:104E10000101012D94F0E0809A700C9CC0E0300CF0
:104E2000015A181207FFFFFEF8F8F8F0F0F0E0E082
:104E3000C01FFFFFFC0A280AF0F8FEFF7FC7E0E072
:104E4000E00B065BF8FCFFFFFF198179011CFEE116
:104E50007F061AF9049B7FF017095A7F21181C1D41
:104E6000FBE7DF3FFFFFF7F7EF8F0F1F1F1EFDFF71
:104E7000F7FBFD1E1F1F8FCFE7F788065EBFEFF71A
:104E8000FB0C2A0FFA5809F9F7CFBF7FFFFEFEF29D
:104E900019082E7FDFEFFBFD0C026003180F0307DC
:104EA000070F0F1F3F3F7F7DFBEFDF7F72000F6D0E
:104EB000BFDFF77B7E3F3F1F1F0F0F070701130167
:104EC000011902096C74016013C5026A08D213212A
:104ED000031308021A030221139D063D080306046A
:104EE0000C130507150804030532041A7D0C14057C
:104EF000040632051AF50C140605033206136D0874
:104F00000229082BA24A4B51680901020304060733
:104F10000809840112292269261C02040666000081
:0400000508000131BD
:00000001FF
